:020000040800F2
:10000000C0840020E9020008A9300008B1290008D6
:10001000A53000089D080008353A000800000000DF
:10002000000000000000000000000000290200089D
:10003000730900080000000085020008C1310008B3
:100040000303000803030008030300080303000878
:100050000303000803030008030300080303000868
:1000600003030008030300087509000803030008E0
:100070000303000803030008030300080303000848
:10008000030300080303000803030008B108000885
:10009000A108000803030008030300087F09000803
:1000A0000303000803030008030300080303000818
:1000B0000303000803030008030300080303000808
:1000C00003030008030300080303000803030008F8
:1000D00003030008253A000803030008030300088F
:1000E00003030008030300080303000803030008D8
:1000F00003030008030300080303000803030008C8
:1001000003030008030300080303000803030008B7
:100110000303000803030008053300080303000875
:100120000303000803030008030300080303000897
:100130000303000803030008030300080303000887
:100140000303000803030008030300080303000877
:100150000303000803030008030300080303000867
:100160000303000803030008030300080303000857
:100170000303000803030008030300080000000055
:10018000030300080303000800F002F800F03CF845
:100190000AA090E8000C82448344AAF10107DA45E2
:1001A00001D100F031F8AFF2090EBAE80F0013F0F8
:1001B000010F18BFFB1A43F001031847204E00003F
:1001C000404E0000103A24BF78C878C1FAD85207D0
:1001D00024BF30C830C144BF04680C6070470000C1
:1001E0000023002400250026103A28BF78C1FBD840
:1001F000520728BF30C148BF0B6070471FB504F0DD
:100200009DFE1FBD10B510BD00F074F91146FFF73B
:10021000F5FF03F0B5FF00F092F903B4FFF7F2FF2A
:1002200003BC00F095F900002C4B19680868B0E891
:10023000F04F80F30988BFF36F8F4FF0000080F319
:10024000118870470000000008480068006880F3CB
:1002500008884FF0000080F3148862B661B6BFF3DF
:100260004F8FBFF36F8F00DF00BF00BF08ED00E0CE
:10027000DFF80C00016841F470010160704700BFB5
:1002800088ED00E0EFF30980BFF36F8F134B1A681E
:100290001EF0100F08BF20ED108A20E9F04F10600B
:1002A00009B44FF0500080F31188BFF34F8FBFF3B4
:1002B0006F8F04F05DFC4FF0000080F3118809BCE3
:1002C00019680868B0E8F04F1EF0100F08BFB0ECD6
:1002D000108A80F30988BFF36F8F70479800002061
:1002E000EFF3058070470000094880470948004740
:1002F000FEE7FEE7FEE7FEE7FEE7FEE7FEE7FEE7D6
:10030000FEE7FEE704480549054A064B7047000032
:10031000A132000889010008C0440020C0840020E8
:10032000C0640020C064002053EA020C00F0698021
:100330002DE9F04B4FF00006002B1FBFB3FA83F5F9
:1003400003FA05F424FA05F65E4012BF1643B2FA2A
:1003500082F502FA05F4C5F120051EBF22FA05FC5C
:1003600044EA0C04203556EA044C4FEA144418BF02
:10037000641C4FF000084FF00009904271EB030C31
:1003800039D3002919BFB1FA81F701FA07F6B0FA9B
:1003900080F700FA07F6C7F120071EBF20FA07FC16
:1003A00046EA0C062037B6FBF4FCA7EB0507103F26
:1003B00007F01F0BCBF120060CFA0BFB2CFA06F60C
:1003C00044BFB3460026202FA4BF5E464FF0000B6B
:1003D0005BEA060C08BF4FF0010B19EB0B09ABFBF6
:1003E000027C48EB0608C01B06FB02CC0BFB03CCCF
:1003F00071EB0C01C1E70B46024641464846BDE899
:10040000F08B13B54FF000004FF00001AFF3008008
:10041000BDE81C40704710B5203AC0F00B80B1E831
:100420001850203AA0E81850B1E81850A0E8185029
:10043000BFF4F5AF5FEA027C24BFB1E81850A0E832
:10044000185044BF18C918C0BDE810405FEA827C4C
:1004500024BF51F8043B40F8043B08BF7047D20763
:1004600028BF31F8023B48BF11F8012B28BF20F804
:10047000023B48BF00F8012B70474FF0000200B567
:10048000134694469646203922BFA0E80C50A0E8B7
:100490000C50B1F12001BFF4F7AF090728BFA0E865
:1004A0000C5048BF0CC05DF804EB890028BF40F831
:1004B000042B08BF704748BF20F8022B11F0804F73
:1004C00018BF00F8012B704770477047704710B590
:1004D00000F008F8006810BD10B5044600F002F8FE
:1004E000046010BD00487047604400200048704719
:1004F000604400207546FFF7F9FFAE4605006946E7
:10050000534620F00700854618B020B5FFF7FAFEE5
:10051000BDE820404FF000064FF000074FF0000804
:100520004FF0000B21F00701AC46ACE8C009ACE885
:10053000C009ACE8C009ACE8C0098D46704710B5E9
:100540000446AFF300802046BDE81040FFF765BECB
:1005500001491820ABBEFEE72600020070470000EC
:10056000B7EE000A80ED000A9FED060A80ED010A51
:100570009FED040A80ED020A9FED020A80ED030A56
:10058000704700000000000070B52DED028B06469C
:10059000B0EE408A0C46154695ED023AF0EE432A3D
:1005A00095ED013AB0EE432A95ED003AF0EE431A8C
:1005B00094ED023AB0EE431A94ED013AF0EE430A9C
:1005C00094ED003AB0EE430A304602F0EDFBBDEC8C
:1005D000028B70BD10B501221021024801F0ACF869
:1005E00010BD00000000024010B50022102102489A
:1005F00001F0A2F810BD00000000024070470000AA
:1006000010B501221146024801F096F810BD000015
:100610000004024010B500220121024801F08CF8CC
:1006200010BD000000040240704710B5044603E00E
:100630004FF47A7000F006F8201EA4F101018CB28C
:10064000F6D110BD70B5034600BF00BF00200022E8
:1006500000BF4FF0E0267569A82603FB06F44FF0B3
:10066000E026B16910E04FF0E026B06988420BD077
:10067000884202D20E1A324402E02E1A0E4432444C
:100680000146A24200D300E0EDE700BF70BD10B507
:100690000024FFF7B3FFFFF7C7FF03F0B5FB0443E8
:1006A00003F046FC0443204610BD00002DE9FC4148
:1006B00005460E461746002000900190FFF794FF74
:1006C000922000F0D1F806226946122000F0ACF822
:1006D000FFF780FF9DF80100000200B29DF80010B6
:1006E00040EA010400EE104AB8EEC00A4C48D0EDD2
:1006F000000A20EE200A86ED000A9DF803000002A1
:1007000000B29DF8021040EA010400EE104AB8EE73
:10071000C00A4348D0ED000A20EE200A86ED010A07
:100720009DF80500000200B29DF8041040EA0104A3
:1007300000EE104AB8EEC00A3948D0ED000A20EEAB
:10074000200A86ED020AFFF765FF082269460020AD
:1007500000F06AF8FFF754FF9DF800000F2838D129
:100760009DF80300000200B29DF8021040EA010467
:1007700000EE104AB8EEC00A2A48D0ED000A20EE7A
:10078000200A85ED000A9DF80500000200B29DF8E0
:10079000041040EA010400EE104AB8EEC00A2148F5
:1007A000D0ED000A20EE200A85ED010A9DF8070031
:1007B000000200B29DF8061040EA010400EE104A63
:1007C000B8EEC00A1748D0ED000A20EE200A85EDE9
:1007D000020AFFF709FFA22000F046F8022269464C
:1007E000222000F021F8FFF7F5FE9DF80000C00080
:1007F0009DF8011040EA6114B4F5806F02DBA4F5A6
:10080000006004B200EE104AF8EEC00AB4EE001A1E
:10081000B3EE070A00EE810A87ED000ABDE8FC810D
:10082000600000206400002070B506460C461546A6
:1008300046F0800000F018F806E0552000F014F8AB
:100840002070641C681EC5B2002DF6D170BD70B555
:1008500004460D4644F0800000F006F8552000F0F4
:1008600003F8287070BD000001B582B04FF47A70B3
:10087000012301AA02A90090024801F08FFC9DF813
:1008800004000EBDF804002070B505460C4628464D
:10089000FFF7EAFF2046FFF7E7FF70BD00BFFEE766
:1008A00010B5024800F0E9FA10BD0000D0040020A5
:1008B00010B5024800F0E1FA10BD0000D00400209D
:1008C00001680A4BCAB2103AA3FB02321209084B64
:1008D0009B5CC365032A04D96FF30901091D816577
:1008E00002E06FF309018165806D7047ABAAAAAA87
:1008F000B44F0008014600208A6A8B69002B0FD094
:10090000B3F5005F1DD08AB3012A30D0022A2ED061
:10091000032A04D1C96A11F0807F00D001207047FA
:100920001AB1012A07D0022AF9D1C96A11F0807FD1
:10093000F5D001207047C96AB1F1C07FFAD101201A
:1009400070475AB1012A0BD0022A07D0032AF7D1E7
:10095000C96AB1F1C07FF3D101207047012070470F
:10096000C96A11F0807FFAD001207047FFE70120AB
:100970007047704710B5102000F0C4FD10BD10B5D1
:10098000202000F0BFFD10BD7047000008B5052015
:1009900040490880002040490880404908800024E0
:1009A00020E004EB840101EBC4013D4A02EB81002D
:1009B0009FED3C2ADFED3B1A3849098800EE101AFA
:1009C000B8EE401A3449098800EE101AF8EE400AD1
:1009D0003049098800EE101AB8EE400A03F0DEFC38
:1009E000601CC4B2072CDCDB53E02F4890ED020AF8
:1009F000DFED2E0A20EE200ADFED2D0A80EE201A10
:100A00002C4880ED001A002424E004EB44012A4A1B
:100A100002EB8101898800EE101AB8EE400AF0EE70
:100A2000400A04EB840101EBC4011D4A02EB810082
:100A3000204991ED000A03F001FCBDEEC00A10EE62
:100A4000100A00B204EB44011B4A02EB810148800A
:100A5000601CC4B2072CD8DB1748B0F92600009000
:100A60001548B0F91A30B0F90E20B0F90210002084
:100A700003F0E6FE002000900F48B0F94A30B0F9CC
:100A80003E20B0F93210012003F0DAFE322003F0EC
:100A900099FBAAE7080000200A0000200C000020B3
:100AA0001001002000A00C46400700200004004672
:100AB0000000344304000020D006002090F82020DD
:100AC000012A07D0022A05D0416A41F480214162FF
:100AD000012070470068426911434161002070475E
:100AE00070B490F82040D0F800C0DCF808C0012CA9
:100AF00008D0022C06D0416A41F48021416270BCCA
:100B0000012070470CF080640CF000652C4302D18A
:100B10001CF0805F5FD0CCF3016CBCF1020F06D9F2
:100B2000416A41F40001416270BC01207047012418
:100B300004FA0CF41C608B684FF4C0749BB1CD6850
:100B400004EB0C162B434D6843EAC5030568AB5113
:100B50004FF4C273066803EB0C130D69F550097D61
:100B6000012909D00DE00D88CB6804EB0C1643EA8F
:100B700045530568AB51EBE70168CD5845F48075E6
:100B8000CD501179D379557941EA036193791B04EA
:100B900043EA052319434FF4C675036805EB0C15AA
:100BA00059511178D37841EA0361937852781B0444
:100BB00043EA022211434FF4C473026803EB0C139F
:100BC000D150016804EB0C100A5842F001020A509F
:100BD00070BC00207047416A41F40011416270BC52
:100BE0000120704790F82020012A07D0022A05D062
:100BF000416A41F480214162012070474248D0F8A7
:100C0000002242F00102C0F80022D0F8002222F4B3
:100C10007C52C0F80022D0F800224B6A42EA03223C
:100C2000C0F800220A7D012302F01F0203FA02F23B
:100C3000D0F81C329343C0F81C32CB69D3B9D0F83A
:100C40000C329343C0F80C32B1F80CC04B686CF313
:100C50001F43D1F814C000EBCC0CCCF84032B1F8F3
:100C600008C00B686CF31F43D1F814C000EBCC0C28
:100C7000CCF84432CB69012B1AD1D0F80C32134393
:100C8000C0F80C32B1F800C04B686CF31F43D1F8C8
:100C900014C000EBCC0CCCF84032B1F808C0CB68E3
:100CA0006CF31F43D1F814C000EBCC0CCCF84432E9
:100CB0008B697BB1D0F804321343C0F804320B695E
:100CC00073B1D0F814321343C0F81432096A012901
:100CD0000CD010E0D0F804329343C0F80432EEE7B1
:100CE000D0F814329343C0F81432EFE7D0F81C1256
:100CF0001143C0F81C12D0F8001221F00101C0F815
:100D0000001200207047000000640040704710B4DB
:100D100090F820C0BCF1010F09D0BCF1020F06D041
:100D2000416A41F48021416210BC0120704739B111
:100D3000D0F800C0DCF810C01CF0030F7DD006E036
:100D4000D0F800C0DCF80CC01CF0030F7BD04FF4CF
:100D5000D87C04680CEB011C54F80C4004F004042B
:100D60009460002C7DD0046854F80C40E408546072
:100D7000046854F80CC0CCF3400CC2F80CC04FF41B
:100D8000DA7C04680CEB011C54F80C4004F00F04EE
:100D90001461046854F80C40C4F307249461046897
:100DA00054F80CC04FEA1C4CC2F814C04FF4DC726B
:100DB000D0F800C002EB01125CF802C083F800C05A
:100DC000D0F800C05CF802C04FEA1C2C83F801C0C8
:100DD000D0F800C05CF802C04FEA1C4C83F802C097
:100DE000D0F800C05CF80220120EDA704FF4DE7208
:100DF000D0F800C002EB01125CF802C083F804C016
:100E0000D0F800C05CF802C04FEA1C2C83F805C083
:100E1000D0F800C05CF802C04FEA1C4C83F806C052
:100E2000D0F800C05CF80220120EDA71F9B1006847
:100E3000016941F02001016102E00BE003E010E0F4
:100E400010BC00207047416A41F40011416210BC9F
:100E500001207047416A41F40011416210BC012039
:100E60007047046854F80C40640D146080E7006813
:100E7000C16841F02001C160DEE72DE9F05F054661
:100E8000002428684669D0F804908768D0F80CA040
:100E9000D0F810B0D0F8188016F0010F54D017F029
:100EA000010F17D00121816017F0020F03D02846EF
:100EB00000F098FA0EE017F0040F02D04FF400642F
:100EC00008E017F0080F02D04FF4805402E02846E3
:100ED00000F087FA17F4807F19D029684FF48070EA
:100EE000886017F4007F03D0284600F07DFA0EE0FA
:100EF00017F4806F02D044F4005408E017F4006F38
:100F000002D044F4804402E0284600F06CFA17F462
:100F1000803F19D029684FF48030886017F4003F73
:100F200003D0284600F062FA0EE017F4802F02D0BA
:100F300044F4004408E017F4002F02D044F4803455
:100F400002E0284600F051FA16F0080F07D01AF018
:100F5000100F04D044F4007429681020C86016F003
:100F6000040F4FF0080707D01AF0080F04D02868C4
:100F7000C760284600F0A4F916F0020F07D02868D1
:100F8000C06810F0030F02D0284600F09BF916F05D
:100F9000400F07D01BF0100F04D044F48064296880
:100FA0001020086116F0200F07D01BF0080F04D0A6
:100FB00028680761284600F0DFF916F0100F07D007
:100FC0002868006910F0030F02D0284600F0D5F918
:100FD00016F4003F08D019F0100F05D02968102032
:100FE0004860284600F0CAF916F4803F07D019F08F
:100FF000080F04D028684760284600F0F8F916F476
:10100000004F4AD019F0040F44D016F4807F04D06A
:1010100018F0010F01D044F0010416F4007F04D051
:1010200018F0020F01D044F0020416F4806F04D0CF
:1010300018F0040F01D044F0040416F4006F29D016
:1010400018F0700F26D008F07000402815D006DC8C
:10105000102809D020280AD0302816D10AE05028BC
:101060000ED0602811D10EE044F008040DE044F0E9
:1010700010040AE044F0200407E044F0400404E0D7
:1010800044F0800401E044F480742868816921F010
:1010900070018161296804204860002C05D0686ACD
:1010A000204368622846FFF731FEBDE8F09F70B527
:1010B0000446002C03D094F8200010B104E0012075
:1010C00070BD204600F0A8F82068016821F00201F8
:1010D000016000F039FB0546206840684FF00506C6
:1010E00010F0020F11D000F02FFB401B0A2807D987
:1010F000606A40F40030606284F82060012070BDB6
:101100002068406810F0020FEDD12068016841F0BE
:101110000101016000F018FB05462068406810F0EE
:10112000010F11D100F010FB401B0A2807D9606A9B
:1011300040F40030606284F82060012070BD2068B7
:10114000406810F0010FEDD0207E01283FD02068CC
:10115000016821F080010160607E01283DD0206897
:10116000016821F040010160A07E01283BD0206889
:10117000016821F020010160E07E012839D020685B
:10118000016841F010010160207F012837D02068FC
:10119000016821F008010160607F012835D02068D6
:1011A000016821F004010160E168A06862690843F8
:1011B0002169114308436168491E08432168C861D9
:1011C00000206062012084F82000002070BD2068AB
:1011D000016841F080010160BEE72068016841F0CC
:1011E00040010160C0E72068016841F02001016012
:1011F000C2E72068016821F010010160C4E720689F
:10120000016841F008010160C6E72068016841F00B
:1012100004010160C8E7000010B586B0044614213F
:1012200001A8FFF72AF92349206888423FD100BF6F
:10123000002000902048006840F000701E490860BF
:101240000846006800F00070009000BF00BF00BFBB
:101250000020009018481038006840F00800164937
:10126000103908600846006800F00800009000BFD0
:1012700000BF032001900220029000200390032071
:1012800004900920059001A90C4800F047F90022BC
:101290000521132000F0FEFA132000F0EDFA0022E1
:1012A0000521142000F0F6FA142000F0E5FA06B04B
:1012B00010BD00000064004040380240000C0240B5
:1012C0007047000010B58AB004462849206888425B
:1012D00005D101AB03AA00212046FFF718FD0398B2
:1012E000B0F5017F37D90398B0F5037F33D2204999
:1012F0000988491C1E4A11800399491FC8B29DF8EC
:1013000005109DF8042041EA022100EB4002194B30
:1013100003EB820291809DF807109DF8062041EAB8
:10132000022109B200EB400203EB8202D1809DF85A
:1013300009109DF8082041EA022109B200EB4002A1
:1013400003EB820211819DF80A1000EB400203EBCF
:101350008202917200BF06480088B0F5FA7F02D180
:101360000020034908800AB010BD0000006400405E
:1013700020000020D006002070477047704770B5ED
:10138000044694F82000012805D0606A40F400204B
:101390006062012070BD022084F82000206801688E
:1013A00021F00101016000F0CFF905462068406896
:1013B00010F0010F12D000F0C7F9401B0A2808D91D
:1013C000606A40F400306062052084F8200001204B
:1013D00070BD2068406810F0010FECD10020606201
:1013E00070BD7047704770477047704770477047CF
:1013F00090F83510022903D0802141650120704703
:10140000052180F835100068016821F001010160B4
:10141000002070472DE9F041044600F095F905469B
:10142000DCB1002684F83460022084F8350020689E
:10143000016821F0010101602068006810F0010FCF
:1014400013D000F081F9401B052809D920206065E0
:10145000032084F83500BDE8F0810120BDE8F0816B
:101460002068006810F0010FEBD121680868234A5A
:101470001040A3686268D4F810C01A43E36843EAD6
:101480000C031A4363691A43A3691A43E3691A43B5
:10149000236A1A431043626A042A03D1236BE26A67
:1014A0001A43104308602068406920F00701606A11
:1014B00040EA0105012704280ED1A06A0543E06A2D
:1014C00050B12046FFF716FA30B14020606584F82D
:1014D00035700120BDE8F081206845612046FFF7A6
:1014E000EFF994F85C103F2202FA01F18160666521
:1014F00084F835700020BDE8F08100003F8010F0D6
:101500007047000010B504490A68024202D0086022
:10151000FFF7F6FF10BD0000143C01402DE9F84F25
:101520000022DFF80082DFF80092DFF800A24FF01F
:10153000030E0F27012303FA02F50B682B40AB4281
:101540007DD1D1F804C0BCF1020F02D0BCF1120F62
:1015500012D14FEAD20C00EB8C0CDCF8206054075F
:10156000E40E07FA04FB26EA0B06D1F810B00BFADA
:1015700004F43443CCF8204006684FEA420C0EFADB
:101580000CF4A64391F804B00BF0030B0BFA0CFB20
:101590004BEA060606604E68012E05D0022E03D0E7
:1015A000112E01D0122E11D18668A643D1F80CB0AD
:1015B0000BFA0CFB4BEA06068660466826EA050530
:1015C0000E79C6F30016964035434560C56825EA96
:1015D00004048D6805FA0CFC4CEA040CC0F80CC03D
:1015E000D1F804C01CF0805F7DD0D8F800C04CF466
:1015F000804CC8F800C0D8F800C00CF4804CCDF87E
:1016000000C022F0030C0CF1804404F59834D4F8A7
:1016100008C895072D0F07FA05F62CEA0606A0F173
:10162000804CBCF5003C64D0A0F1804CBCF5013C82
:1016300062D0A0F1804CBCF5023C60D000E052E0EA
:10164000A0F1804CBCF5033C5CD0A0F1804CBCF513
:10165000043C5AD0A0F1804CBCF5053C58D0A0F118
:10166000804CBCF5063C56D0A0F1804CBCF5073C44
:1016700054D04FF0080C0CFA05FC4CEA060CC4F8E8
:1016800008C8D9F800C02CEA030C4C6814F4803F59
:1016900001D04CEA030CC9F800C0254CD4F800C0B6
:1016A0002CEA030C4D6815F4003F01D04CEA030C02
:1016B000C4F800C0DAF800C02CEA030C4C6814F43B
:1016C000801F01D04CEA030CCAF800C0194CD4F8B2
:1016D00000C02CEA030C4D6815F4001F01D04CEA41
:1016E000030CC4F800C0521C102AFFF423AFBDE85D
:1016F000F88F4FF0000CBEE74FF0010CBBE74FF046
:10170000020CB8E74FF0030CB5E74FF0040CB2E75A
:101710004FF0050CAFE74FF0060CACE74FF0070CAD
:10172000A9E7000044380240003C0140083C014069
:10173000043C01400C3C0140002A01D0816170470B
:10174000090481617047000001488068704700000B
:101750008C00002002488168027811448160704743
:101760008C00002010B50B48016841F40071016045
:10177000016841F480610160016841F48071016099
:10178000032000F0BBF8002000F006F800F04AF853
:10179000002010BD003C024070B588B00446002512
:1017A000002600222146362000F074F8362000F092
:1017B00063F800BF002001901648006840F0100058
:1017C000144908600846006800F01000019000BF4E
:1017D00000BF02A903A800F05DF900F07FF9450001
:1017E0000D48B5FBF0F0461E0C480D49086040F26C
:1017F000E7310B48C160466000210161816000F063
:10180000CBFD20B9064800F0FDFD08B070BD0120F9
:10181000FBE700004038024040420F00001000404B
:101820009006002008B500BF002000901148006815
:1018300040F480400F4908600846006800F480408A
:10184000009000BF00BF00BF00200090081F00688C
:1018500040F08050091F08600846006800F0805082
:10186000009000BF00BF00220F21901E00F012F870
:1018700008BD00004438024000280ADB00F01F01C8
:10188000012202FA01F14009800000F1E020C0F8D5
:101890000011704710B4184B1B68C3F30223C3F147
:1018A000070CBCF1040F01D94FF0040C1C1D072CD0
:1018B00001D2002300E0DB1E012404FA0CFCACF191
:1018C000010C0CEA0101994004FA03F35B1E1A4073
:1018D0001143002806DB00F1E020090180F8001424
:1018E00010BC704700F00F0000F1E020090180F803
:1018F000141D10BC704700000CED00E000F0070064
:10190000064A11684FF6FF03194041EA002040F0F3
:10191000FD7040F080601060704700000CED00E04A
:101920002DE9F04704460D46002C13D0DFF8509106
:10193000D9F80000EFB200F00F00A8420DD289F8EC
:101940000070D9F8000000F00F00A84205D0012077
:10195000BDE8F0870120BDE8F0872068494E10F00F
:10196000020F14D010F0040F03D0306840F4E050A0
:101970003060207810F0080F03D0306840F46040E9
:1019800030603068A16820F0F000084330602078B3
:1019900010F0010F3ED060683B49012808D00228B2
:1019A0000DD003280BD0096811F0020F28D00AE0EF
:1019B000096811F4003F06D10120BDE8F0870968ED
:1019C00011F0007F19D0316821F003010843306025
:1019D000FFF7BAFE80463068616800F00C00B0EB9B
:1019E000810F17D041F2883AFFF7AEFEA0EB080056
:1019F000504508D90320BDE8F0870120BDE8F087F5
:101A00000120BDE8F0873068616800F00C00B0EBA1
:101A1000810FE9D1D9F8000000F00F00A8420AD9DF
:101A200089F80070D9F8000000F00F00A84202D039
:101A30000120BDE8F087207810F0040F05D0306851
:101A4000E16820F4E05008433060207810F0080F7F
:101A500006D03068216920F4604040EAC10030605F
:101A600000F05CF83168094AC1F30311515CC840C9
:101A7000074908600020FFF78FFE0020BDE8F087CF
:101A8000003C024008380240003802409C4F0008E9
:101A90001C0000200F2202600B4A136803F00303AE
:101AA0004360136803F0F0038360136803F4E053AA
:101AB000C360126802F46042D20802610348006801
:101AC00000F00F000860704708380240003C0240F8
:101AD00001480068704700001C00002000B5FFF7B7
:101AE000F7FF04490968044AC1F38221515CC840E8
:101AF00000BD000008380240AC4F000800B5FFF7F9
:101B0000E7FF04490968044AC1F34231515CC84007
:101B100000BD000008380240AC4F000810B517485F
:101B2000006810F00C01164816D0164B042912D08C
:101B3000082911D1144C216801F03F02216811F4E9
:101B4000800F0AD02068C0F38810A0FB0301002397
:101B5000FEF7EAFB09E0184610BD21680023C1F337
:101B60008811A1FB0001FEF7DFFB2168C1F30141F1
:101B7000491C4900B0FBF1F010BD000008380240DC
:101B80000024F400001BB700043802402DE9F84F90
:101B90000446002C10D02078FA4D10F0010F64D0CC
:101BA000F948016801F00C0104290DD0006800F02B
:101BB0000C00082803D011E00120BDE8F88FF3489D
:101BC000006810F4800F09D0286810F4003F4CD052
:101BD0006068002849D10120BDE8F88F6068B0F541
:101BE000803F14D0B0F5A02F16D0286820F48030A4
:101BF0002860286820F480202860606810B3FFF710
:101C0000A3FD0646286810F4003F0ED02DE028689A
:101C100040F480302860F0E7286840F48020286095
:101C2000286840F480302860E7E7FFF78DFD801BCF
:101C3000642802D90320BDE8F88F286810F4003F1B
:101C4000F3D012E0FFF780FD0646286810F4003F4D
:101C50000BD0FFF779FD801B642802D90320BDE873
:101C6000F88F286810F4003FF3D12078C84F10F0A7
:101C7000020F4FF0000856D0C348016811F00C0F56
:101C800015D0006800F00C00082804D1BF48006897
:101C900010F4800F0BD0E06878B301203860FFF7B4
:101CA00053FD0646286810F0020F12D01DE0286888
:101CB00010F0020F05D0E068012802D00120BDE835
:101CC000F88F2868216920F0F80040EAC1002860F8
:101CD00029E0FFF739FD801B022802D90320BDE867
:101CE000F88F286810F0020FF3D02868216920F0DF
:101CF000F80040EAC100286015E0FFE7C7F800805F
:101D0000FFF722FD0646286810F0020F0BD0FFF700
:101D10001BFD801B022802D90320BDE8F88F28682C
:101D200010F0020FF3D1207810F0080F33D099484B
:101D3000DFF864926169B9B101210160FFF704FD28
:101D40000646D9F8000010F0020F24D1FFF7FCFC82
:101D5000801B022802D90320BDE8F88FD9F80000C3
:101D600010F0020FF2D016E0C0F80080FFF7ECFC94
:101D70000646D9F8000010F0020F0CD0FFF7E4FC83
:101D8000801B022802D90320BDE8F88FD9F8000093
:101D900010F0020FF2D1207810F0040F73D04FF042
:101DA0000009DFF8F8A1DAF8000010F0805F0CD12C
:101DB000DAF8000040F08050CAF80000DAF80000BD
:101DC00000F0805000904FF00109DFF8D4B1DBF84B
:101DD000000010F4807F1AD1DBF8000040F480701E
:101DE000CBF80000FFF7B0FC0646DBF8000010F46B
:101DF000807F0CD1FFF7A8FC801B022802D90320AA
:101E0000BDE8F88FDBF8000010F4807FF2D0A06806
:101E1000DFF890B1012818D005281DD0DBF80000AC
:101E200020F00100CBF80000DBF8000020F00400F7
:101E3000CBF80000A06838B3FFF786FC0646DBF855
:101E4000000010F0020F14D03CE0DBF8000040F07E
:101E50000100CBF80000EDE7DBF8000040F00400E3
:101E6000CBF80000DBF8000040F00100CBF80000E8
:101E7000E0E7FFF769FC811B41F28830814204D919
:101E80000320BDE8F88F26E005E0DBF8000010F045
:101E9000020FEED016E0FFF757FC0646DBF8000015
:101EA00010F0020F0ED0FFF74FFC811B41F288307B
:101EB000814202D90320BDE8F88FDBF8000010F062
:101EC000020FF0D1B9F1010F05D1DAF8000020F0CE
:101ED0008050CAF80000A069E8B32B49096801F0F6
:101EE0000C0108296BD0022810D0C7F86080FFF7DA
:101EF0002BFC0446286810F0007F5ED0FFF724FC1E
:101F0000001B022855D90320BDE8F88FC7F8608070
:101F1000FFF71AFC0646286810F0007F0BD0FFF789
:101F200013FC801B022802D90320BDE8F88F286823
:101F300010F0007FF3D1216AE069A26A0843616A68
:101F40004FF0FF33890103EB520241EA024108439B
:101F500094F82C1000E030E040EA01610B48016089
:101F600001203866FFF7F0FB0446286810F0007F78
:101F700023D1FFF7E9FB001B022815D90320BDE898
:101F8000F88F1CE000380240083802400438024054
:101F900000004742800E47427438024040380240F9
:101FA0000070004070380240286810F0007FE0D0D8
:101FB00003E0286810F0007FA0D10020DFE70120B7
:101FC000DDE770B50446002C05D00025A56294F825
:101FD000510010B106E0012070BD84F85050204639
:101FE00000F030F8022084F851002068016821F0E8
:101FF00040010160A168606822690843E1681143FB
:10200000084361690843218B01F400710843E169C9
:102010000843216A0843A16A084321680860A0694F
:10202000042101EA1040616A084321684860206881
:10203000C16921F40061C1616565012084F8510026
:10204000002070BD10B586B00446142101A8FEF72B
:1020500014FA4B49206888427ED100BF00200090CE
:102060004848006840F480504649086008460068C7
:1020700000F48050009000BF00BF00BF002000901F
:1020800040481438006840F002003E4914390860A6
:102090000846006800F00200009000BF00BF00BFCB
:1020A000002000900846006840F0010008600846E3
:1020B000006800F00100009000BF00BF18200190F0
:1020C0000220029000200390032004900520059038
:1020D00001A92D48FFF722FA8020019002200290EA
:1020E00000200390032004900520059001A92748B3
:1020F000FFF714FA2648274908604FF0C06048608F
:10210000002124488160C1604FF480610161002199
:1021100041618161C1614FF440310162002141623E
:10212000FFF778F908B1FEF72FFC00BF1948E0640B
:10213000846300BF16481830174908604FF0C0602C
:1021400048604021144881600021C1604FF48061E3
:1021500001610021416100E010E08161C1614FF443
:102160000031016200214162FFF754F908B1FEF726
:102170000BFC00BF0848A064846300BF06B010BD1C
:102180000030014044380240000402400000024098
:102190004064024050050020B00500202DE9F84FB2
:1021A00004460A9E8A4693461F4601254FF00008C2
:1021B00094F8500001280ED0012084F85000FFF759
:1021C000C3FA814694F85100616801280ED0B1F538
:1021D000827F07D102E00220BDE8F88FA16809B92B
:1021E000042803D04FF0020800F0CBB8BAF1000F7A
:1021F0001DD0BBF1000F1AD0380018D094F8510050
:10220000042802D0052084F8510000206065C4F83D
:1022100038B0E787A787C4F830A0E786A786206490
:1022200060642068016811F0400F03D006E04FF0B1
:102230000108A6E0016841F040010160E068B0F5E6
:10224000006F05D06068002848D0012F46D07EE09E
:10225000606808B1012F3AD1206B21680088C860FE
:10226000206B801C2063E08E401EE0862FE02068FB
:10227000816811F0020F0DD0E18E59B1012D09D105
:10228000216B0988C160206B801C2063E08E401E9A
:10229000E08600252068816811F0010F0BD0E18FE6
:1022A00049B1C068A16B0880A06B801CA063E08F5F
:1022B000401EE0870125FFF747FAA0EB0900B04276
:1022C00005D3B6F1FF3F02D04FF0030859E0E08E8E
:1022D0000028CCD1E08F0028C9D13EE0206B2168D6
:1022E00000780873206B401C2063E08E401EE0865F
:1022F0002DE02068816811F0020F0DD0E18E59B1F8
:10230000012D09D1216B09780173206B401C2063DA
:10231000E08E401EE08600252068816811F0010FE4
:102320000BD0E18F49B1C068A16B0870A06B401C55
:10233000A063E08F401EE0870125FFF705FAA0EBC0
:102340000900B04202D3B6F1FF3F11D186B1E08E51
:102350000028CED1E08F0028CBD14A463146204616
:1023600000F0A4FE38B14FF001082020606508E0BD
:102370004FF0030805E0A06818B92068C1688068BC
:102380000090012084F85100002084F8500040465D
:10239000BDE8F88F7047704710B50446002C03D095
:1023A00094F83D0010B107E0012010BD002084F832
:1023B0003C00204600F00CF8022084F83D00211D6E
:1023C000206800F0A7FF012084F83D00002010BD28
:1023D00008B50A4A016891420FD100BF002100915F
:1023E0000749096841F40031054A1160114609683E
:1023F00001F40031009100BF00BF08BD004401405E
:10240000443802400168CA6842F00102CA600068AC
:10241000816801F00701062903D0016841F001013C
:10242000016000207047704770B50446206801695C
:102430004FF0000511F0020F17D0C16811F0020F24
:1024400013D0E91E0161012020772068806910F017
:10245000030F03D02046FFF7E6FF05E0204600F01B
:10246000CFF8204600F058F925772068016911F06F
:10247000040F18D0C16811F0040F14D06FF00401DC
:102480000161022020772068806910F4407F03D02A
:102490002046FFF7C8FF05E0204600F0B1F82046CF
:1024A00000F03AF925772068016911F0080F18D07B
:1024B000C16811F0080F14D06FF008010161042009
:1024C00020772068C06910F0030F03D02046FFF783
:1024D000AAFF05E0204600F093F8204600F01CF922
:1024E00025772068016911F0100F18D0C16811F02C
:1024F000100F14D06FF010010161082020772068C0
:10250000C06910F4407F03D02046FFF78CFF05E040
:10251000204600F075F8204600F0FEF82577206888
:10252000016911F0010F09D0C16811F0010F05D048
:102530006FF001010161204600F0F0F820680169A8
:1025400011F0800F09D0C16811F0800F05D06FF035
:10255000800101612046FFF71DFF2068016911F02D
:10256000400F09D0C16811F0400F05D06FF0400155
:102570000161204600F0DEF82068016911F0200FAB
:102580000BD0C16811F0200F07D06FF0200101615E
:102590002046BDE87040FFF7FEBE70BD10B586B0A6
:1025A0000446142101A8FDF768FF124920688842FB
:1025B0001DD100BF002000900F48006840F02000AF
:1025C0000D4908600846006800F02000009000BF38
:1025D00000BF4020019002200290012003900220C1
:1025E00004900320059001A90448FEF797FF06B068
:1025F00010BD000000440140303802400014024089
:10260000704770B504460D4694F83C0001280DD083
:10261000012684F83C60022084F83D0042B1042A7F
:102620001AD0082A2DD00C2A53D13EE0022070BDCA
:102630002946206800F0D4FE2068816941F0080135
:1026400081612068816921F00401816120688169CC
:102650002A69114381613CE02946206800F0F8FEB8
:102660002068816941F4006181612068816921F4F9
:1026700080618161206881692A6941EA0221816162
:1026800027E02946206800F01FFF2068C16941F05B
:102690000801C1612068C16921F00401C16120689D
:1026A000C1692A691143C16113E02946206800F01D
:1026B00047FF2068C16941F40061C1612068C169B8
:1026C00021F48061C1612068C1692A6941EA02215F
:1026D000C16184F83D60002084F83C0070BD10B5F5
:1026E0000446002C03D094F83D0010B107E001200F
:1026F00010BD002084F83C00204600F00CF80220B9
:1027000084F83D00211D206800F004FE012084F8BB
:102710003D00002010BD70477047000010B5044612
:1027200003492068884201D1FFF714F810BD00006A
:10273000001000407047704710B5044622681068CA
:10274000D168526900F00F03002B0AD110F0200F5E
:1027500007D011F0200F04D02046BDE8104000F053
:102760003EBF002B6BD002F0010301F4907C53EAD2
:102770000C0364D010F0010F06D011F4807F03D059
:10278000E36B43F00103E36310F0040F06D012F093
:10279000010F03D0E36B43F00203E36310F0020F79
:1027A00006D012F0010F03D0E36B43F00403E363A0
:1027B00010F0080F06D012F0010F03D0E26B42F0C8
:1027C0000802E263E26B002A2ED010F0200F05D041
:1027D00011F0200F02D0204600F001FF2068406970
:1027E000C0F38010E16B11F0080F00D108B3204650
:1027F00000F0DAFE2068416911F0400F15D0416900
:1028000021F040014161606B58B118490165606B6E
:10281000FEF7EEFD002807D0606B016DBDE81040AB
:1028200008472046FFF787FF10BD2046FFF783FFCC
:1028300010BD2046FFF77FFF0020E06310BD10F0C1
:10284000800F07D011F0800F04D02046BDE8104063
:1028500001F0B4B810F0400FF0D011F0400FEDD0FF
:102860002046BDE8104000F0ADBE000099350008DC
:1028700070B50446002C04D094F83900002510B13E
:1028800006E0012070BD84F83850204600F022F8A0
:10289000242084F839002068C16821F40051C16007
:1028A000204600F0EBFE2068016921F490410161AF
:1028B0002068416921F02A0141612068C16841F422
:1028C0000051C160E563202084F8390084F83A00A3
:1028D000002070BD10B586B00446142101A8FDF794
:1028E000CCFD2E492068884255D100BF00200090C1
:1028F0002B48006840F0100029490860084600682D
:1029000000F01000009000BF00BF00BF002000904A
:1029100023481438006840F0020021491439086047
:102920000846006800F00200009000BF00BF00BF32
:10293000002000900846006840F00100086008464A
:10294000006800F00100009000BF00BF80200190EF
:10295000022002900120039003200490072005909C
:1029600001A91048FEF7DAFD4FF400700190022033
:10297000029001200390032004900720059001A9F4
:102980000948FEF7CBFD002205212520FEF782FF36
:102990002520FEF771FF06B010BD000000100140B9
:1029A0004438024000040240000002407047704773
:1029B00000BFFEE700F044F804E000F005F8022054
:1029C00001F000FCF9E7000010B5184AA2F10C0173
:1029D000101DFDF76BFE154A0C3A02F110019FED38
:1029E000140A1448FDF7D0FD134B1A1F111F11488C
:1029F00001F03AFB1048083890ED000ADFED0F0AAD
:102A000020EE200A80ED000A90ED010ADFED0B0AAE
:102A100020EE200A80ED010A90ED020ADFED070AA0
:102A200020EE200A80ED020A10BD00005C070020A5
:102A30006F12833A300700204807002000006442EC
:102A400010B500BFFDF723FE0028FBD1084AA2F114
:102A50000C01101DFDF72AFE05490C390548FDF74C
:102A60007FFD10210448C16101200449087010BD98
:102A70005C07002030070020F80400203C00002004
:102A800010B50F480F4908600320486000210D4829
:102A90008160C1604FF4002101614FF44011416138
:102AA000002101760121417600218176C1760177EE
:102AB0004177FEF7FCFA08B1FDF766FF10BD000094
:102AC00000640040D004002008B500BF0020009042
:102AD0000E48006840F480000C4908600846006811
:102AE00000F48000009000BF00BF002205213A20C2
:102AF000FEF7D0FE3A20FEF7BFFE002205213B2064
:102B0000FEF7C8FE3B20FEF7B7FE08BD3038024096
:102B100000B595B01C2212490EA8FDF77CFC0021DF
:102B20000EA801F05CFB0F4908601C220C491C3107
:102B300007A8FDF770FC002107A801F050FB0A4927
:102B400008601C22064938316846FDF764FC002104
:102B5000684601F044FB0549086015B000BD00005F
:102B6000484F00081800002010000020140000202A
:102B700000B587B0142102A8FDF77FFC00BF00203C
:102B800001904948006840F0020047490860084643
:102B9000006800F00200019000BF00BF00BF0020ED
:102BA00001900846006840F001000860084600688F
:102BB00000F00100019000BF00BF00BF00200190A5
:102BC0000846006840F0080008600846006800F009
:102BD0000800019000BF00BF00BF00200190084620
:102BE000006840F0800008600846006800F080003F
:102BF000019000BF00BF00BF0020019008460068A0
:102C000040F0200008600846006800F020000190B5
:102C100000BF00BF00BF002001900846006840F0E0
:102C2000040008600846006800F00400019000BF3E
:102C300000BF012210211D48FEF77EFD0122114632
:102C40001B48FEF779FD10200290012003900490AC
:102C50000220059002A91548FEF760FC3020029082
:102C6000144803900120049002A91348FEF756FC73
:102C700001200290039004900220059002A90C48C4
:102C8000FEF74CFC002205210A20FEF703FE0A2075
:102C9000FEF7F2FD002205211720FEF7FBFD1720AD
:102CA000FEF7EAFD07B000BD3038024000000240E8
:102CB00000040240000021100008024010B50F4837
:102CC0000F4908604FF48270486000210C48816011
:102CD000C160022101610121416149028161382104
:102CE000C16100210162416281620A21C162FFF774
:102CF00068F908B1FDF748FE10BD00000030014042
:102D0000F804002000B587B01C216846FDF7B5FB2C
:102D1000154816490860002048600021134881606A
:102D200041F28731C160002101618161FFF734FB0D
:102D300008B1FDF729FE0D48FFF7D1FC08B1FDF7FA
:102D400023FE602000900020019002900490002259
:102D500069460648FFF755FC08B1FDF715FE034824
:102D6000FFF71CFC07B000BD004401401006002026
:102D700010B50B480B4908604FF4E1304860002162
:102D800008488160C16001610C21416100218161BD
:102D9000C161FFF76DFD08B1FDF7F6FD10BD000044
:102DA000001001405006002000B52DED068B0246B4
:102DB000B0EE403AF0EE603AB0EE414AF0EE615AC1
:102DC000F0EE424AB0EE625AF5EEC05AF1EE10FA59
:102DD00009D1F5EEC04AF1EE10FA04D1B5EEC05AB1
:102DE000F1EE10FA7ED065EEA50A44EEA40A45EE97
:102DF000050AB0EE600A01F0A5F9F0EE402A25EED2
:102E0000A20AF0EE405A24EEA20AF0EE404A25EE65
:102E1000220AB0EE405A92ED010AD2ED030A20EEEA
:102E2000200AD2ED000A92ED021AF0EE408A40EE3E
:102E3000C18A92ED000AD2ED010A20EE200AD2EDFD
:102E4000020A92ED031AF0EE409A40EE819AD2ED1A
:102E5000000A92ED001AB6EE000A10EE810AD2EDD9
:102E6000030A92ED031AB0EE409A00EE819A24EE26
:102E7000890AF0EE407A45EE697A25EE280AB0EE2E
:102E800040AA05EEC9AA25EEA90AB0EE408A04EED2
:102E9000E88A7C4890ED000AB5EEC00AF1EE10FA1F
:102EA00040DD90ED000A60EE270A774890ED000AB9
:102EB0009FED761A00EE810A80ED000A714890EDD0
:102EC000000A60EE0A0A724890ED000A9FED6F1A40
:102ED00000EE810A80ED000A6A4890ED000A60EE7B
:102EE000080A00E046E06B4890ED000A9FED671A83
:102EF00000EE810A80ED000A634890ED000A33EE8F
:102F0000000AB0EE403A624890ED000A33EE800AC3
:102F1000F0EE403A5F4890ED000A34EE000AB0EE61
:102F2000404A0EE09FED5C0A574880ED000A9FED95
:102F30005A0A574880ED000A9FED570A554880ED20
:102F4000000A5648D0ED000AB0EE430A00EEA70A88
:102F5000B0EE403AD0ED000AB0EE630A00EE8A0A05
:102F6000F0EE403AD0ED000AB0EE440A00EE880AD6
:102F7000B0EE404A9FED4A0A23EE000AB0EE403A16
:102F80009FED470A23EE800AF0EE403A9FED440A97
:102F900024EE000AB0EE404A92ED006AD2ED016ADA
:102FA00092ED027AB1EE660A20EE030A07EE630A9A
:102FB000D2ED030A00EEC40AD2ED000A30EE200A78
:102FC00082ED000A26EE030A07EE040AD2ED030A98
:102FD00000EEE30AD2ED010A30EE200A82ED010A8A
:102FE00026EE230A06EEC40AD2ED030A00EE830A97
:102FF000D2ED020A30EE200A82ED020A26EE040A21
:1030000006EEA30A07EE430AD2ED030A30EE200AC9
:1030100082ED030AD2ED000A60EEA00A92ED011AD9
:10302000D2ED011A41EE210A92ED021AD2ED021AF6
:1030300041EE210A92ED031AD2ED031A41EE210A64
:10304000B0EE600A01F07EF8F0EE402A92ED000A40
:1030500020EE220A82ED000A92ED010A20EE220AF9
:1030600082ED010A92ED020A20EE220A82ED020AA6
:1030700092ED030A20EE220A82ED030ABDEC068BD4
:1030800000BD0000280000202C0000206F12033B30
:103090003000002034000020000000002400002048
:1030A0006F12833A00BFFEE77047000010B582B090
:1030B00004461548DFF854C00068B0FBFCF04FF43C
:1030C0007A7C00FB0CF001906068B0F5827F0ED135
:1030D0000B46009200228021204600F019F880B1B2
:1030E000606D40F02000606502B0032010BD0198C3
:1030F00038B10198401E01902068806810F0800F60
:10310000F5D102B0002010BD1C00002000366E0179
:103110002DE9F0410446069E884617461D46206864
:10312000806838EA000016D00020B84210D0B5F10F
:10313000FF3F05D0FEF708FB801BA8420DD265B10A
:103140002068806838EA000033D00020B842EED111
:103150000020BDE8F0810120E7E72068416821F008
:10316000E00141606068B0F5827F0BD1A068B0F5E6
:10317000004F02D0B0F5806F04D12068016821F0C3
:1031800040010160A06AB0F5005F09D120680168C4
:1031900021F4005101602068016841F40051016090
:1031A000012084F85100002084F850000320BDE87D
:1031B000F0810120CAE700BF012001F003F8FBE71E
:1031C00010B5502080F31188BFF34F8FBFF36F8F7E
:1031D00001F0E6FD18B104494FF08050086000206E
:1031E00080F3118810BD000004ED00E000B593B03D
:1031F000302107A8FDF741F9142102A8FDF73DF998
:1032000000BF002001902448006840F0805022490F
:1032100008600846006800F08050019000BF00BFC1
:1032200000BF002001901D48006840F480401B4909
:1032300008600846006800F48040019000BF00BFAD
:10324000012007900004089002200D9041050E9186
:1032500006210F91A82110910221119107211291AD
:1032600007A8FEF793FC08B1FDF78EFB0F20029034
:1032700002200390002004904FF4A05005904FF4DA
:1032800080500690052102A8FEF74AFB08B1FDF721
:103290007BFB13B000BD00004038024000700040CE
:1032A0001448006840F47000124908601248006831
:1032B00040F001001049086000200F490831086003
:1032C0000D4800680D4908400B4908600C48091D6D
:1032D0000860081F006820F48020091F0860002093
:1032E00005490C3108604FF00060024980390860E0
:1032F0007047000088ED00E000380240FFFFF6FE56
:103300001030002410B50248FFF78EF810BD000001
:1033100090060020F0B402682C4B2D4C2D4D2E4E03
:10332000DFF8B8C098420AD0B0F1804F07D0A04271
:1033300005D0A84203D0B04201D0604503D122F0AD
:1033400070024F683A43984228D0B0F1804F25D0A0
:10335000A04223D0A84221D0B0421FD060451DD04A
:10336000A0F18044B4F5A03418D0A0F18044B4F5A5
:10337000A23413D0A0F18044B4F5A4340ED0A0F14F
:103380008044B4F5C05409D0A0F18044B4F5E054B1
:1033900004D0A0F18044B4F5005403D122F440726B
:1033A000CC6822434C6922F08002224302608A6882
:1033B000C2620A688262984201D0604501D10969FF
:1033C000016301214161F0BC704700000000014031
:1033D0000004004000080040000C004000040140D0
:1033E00070B4026A22F001020262036A4268D0F8F5
:1033F00018C02CF0700C2CF0030C0C6844EA0C0C78
:1034000023F002038C6823430F4C104DA04201D0DF
:10341000A84205D123F00803CE68334323F0040308
:10342000A04201D0A84207D122F4807222F4007297
:103430004C6922438C6922434260C0F818C0496835
:103440004163036270BC704700000140000401400A
:1034500070B4026A22F010020262036A4268D0F875
:1034600018C02CF4E04C2CF4407C0C684CEA042C82
:1034700023F020038C6843EA0413114C114DA04241
:1034800001D0A84206D123F08003CE6843EA061398
:1034900023F04003A04201D0A84209D122F4806267
:1034A00022F400624C6942EA84028C6942EA840296
:1034B0004260C0F818C049688163036270BC7047FD
:1034C000000001400004014070B4026A22F48072DE
:1034D0000262036A4268D0F81CC02CF0700C2CF019
:1034E000030C0C6844EA0C0C23F400738C6843EA68
:1034F0000423114C114DA04201D0A84206D123F45F
:103500000063CE6843EA062323F48063A04201D01F
:10351000A84209D122F4805222F400524C6942EAB6
:1035200004128C6942EA04124260C0F81CC0496867
:10353000C163036270BC7047000001400004014099
:1035400010B4026A22F480520262D0F820C04268AD
:10355000C36923F4E04323F440730C6843EA042373
:103560002CF4005C8C684CEA043CA0F18044B4F577
:10357000803404D0A0F18044B4F5823404D122F424
:1035800080424C6942EA84124260C3614968016426
:10359000C0F820C010BC704710B5806B0021C185F9
:1035A000C184FFF7C8F810BD0168CA6822F49072A0
:1035B000CA6001684A6922F001024A61202180F84C
:1035C0003A10704710B50168CA6822F04002CA601C
:1035D000202180F83910FFF7EAF9002010BD10B55E
:1035E00090F83A10222901D0022010BD8168B1F56F
:1035F000805F11D0016919B30168496801F07F0249
:10360000816A4B1C83620A70C18D491E0904090C32
:10361000C1851CD0002010BD816A02693AB10268E0
:103620005268D2B20A80816A491C8162ECE7026862
:103630005268C2F308020A80816A891C8162E3E74A
:1036400001684A68816A4B1C83620A70DCE7016882
:10365000CA6822F02002CA600168CA6822F4807237
:10366000CA6001684A6922F001024A61202180F89B
:103670003A10FFF79BF9002010BD00002DE9F04142
:10368000044620680169E26821F440511143016158
:103690002169A068E2690843616911430143206818
:1036A000C26822F4037222F414421143C1602068FC
:1036B0004169A26921F4407111434161E069BC4A4A
:1036C000BC49BD4D3226B0F5004F5ED0206888421F
:1036D00002D0904240F01281FEF710FA00EBC001D8
:1036E00001EB001061688900B0FBF1F7FEF706FA04
:1036F00000EBC00101EB001061688900B0FBF1F044
:10370000A5FB001040096FF01801484307EB80004B
:1037100006EB0010A5FB0010400900F0F007FEF7D3
:10372000EDF900EBC00101EB001061688900B0FB0E
:10373000F1F0A5FB0010400907EB0017FEF7DEF9DA
:1037400000EBC00101EB001061688900B0FBF1F8EB
:10375000FEF7D4F900EBC00101EB001061688900AD
:10376000B0FBF1F0A5FB001040096FF018014843D1
:1037700008EB800006EB0010A5FB00102168C0F3E9
:10378000431038448860BDE8F0812068884201D049
:10379000904259D1FEF7B2F900EBC00101EB0010E5
:1037A00061684900B0FBF1F0A5FB0010400907017A
:1037B000FEF7A4F900EBC00101EB001061684900BD
:1037C000B0FBF1F8FEF79AF900EBC00101EB001035
:1037D00061684900B0FBF1F0A5FB001040096FF0F3
:1037E0001801484308EB800006EBC000A5FB001061
:1037F000400900F0F80007EB4007FEF77FF900EB07
:10380000C00101EB001061684900B0FBF1F8FEF760
:1038100075F900EBC00101EB001061684900B0FBD5
:10382000F1F0A5FB001040096FF01801484308EBC8
:10383000800006EBC000A5FB00102168C0F3421019
:1038400038448860BDE8F081FEF748F900EBC0011C
:1038500001EB001061684900B0FBF1F0A5FB00101E
:1038600040090701FEF73AF900EBC00101EB001037
:1038700061684900B0FBF1F8FEF730F900EBC001D8
:1038800001EB001061684900B0FBF1F0A5FB0010EE
:1038900040096FF01801484308EB800006EBC000B8
:1038A000A5FB0010400900F0F80007EB4007FEF709
:1038B00015F900EBC00101EB001061684900B0FB95
:1038C000F1F8FEF70BF900EBC00101EB00106168A5
:1038D0004900B0FBF1F0A5FB001040096FF01801A2
:1038E000484308EB800006EBC000A5FB00102168F0
:1038F000C0F3421038448860BDE8F081FEF7EEF86E
:1039000000EBC00101EB001061688900B0FBF1F72A
:10391000FEF7E4F800EBC00101EB001061688900DC
:10392000B0FBF1F0A5FB001040096FF0180148430F
:1039300007EB800006EB0010A5FB0010400900F02B
:10394000F007FEF7CBF800EBC00101EB0010616857
:103950008900B0FBF1F0A5FB0010400907EB001750
:10396000FEF7BCF800EBC00101EB001061688900B4
:10397000B0FBF1F8FEF7B2F800EBC00101EB00106C
:1039800061688900B0FBF1F0A5FB001040096FF001
:103990001801484308EB800006EB0010A5FB00105F
:1039A0002168C0F3431038448860BDE8F08100000E
:1039B00000140140001001401F85EB5190F83910B0
:1039C000212901D0022070478168B1F5805F0CD0B9
:1039D000016A4A1C0262026809785160C18C491E62
:1039E0000904090CC18410D019E0016A0268098831
:1039F000C1F308015160016919B1016A491C0162F2
:103A0000ECE7016A891C0162E8E70168CA6822F0F4
:103A10008002CA600068C16841F04001C1600020B6
:103A20007047000010B50248FEF786FE10BD00008A
:103A30005006002000BFFEE74100080218BF042026
:103A40000A0E18BF40F001004FF07F4232EA010138
:103A500008BF40F00200012808BF052070470000A1
:103A600010B54FF00E402DED028BB0EE408A18EEEF
:103A7000104A00EB4400B0F1506F4AD84FF0FC40C0
:103A8000B0EB440F22D2B0EEC80AF7EE000A30EED7
:103A9000C00AF6EE000A60EE208A18EE900A00F0E6
:103AA00009FF01EE100A14F0004F1DBFDFED2D0AD3
:103AB0009FED2D0AB1EE411ADFED2C0A08BF9FEDF4
:103AC0002C0AF8EE001A21EE218A05E0DFED290A22
:103AD00068EE088AB0EE600A9FED271ADFED271A1C
:103AE00030EE080A48EE811A9FED251A08EEA11A59
:103AF000DFED241A48EE811A9FED231A08EEA11A71
:103B000068EE281ABDEC028B01EE810A30EE200A25
:103B100010BD4FF0E440B0EB440F0CD918EE100A82
:103B2000FFF78AFF042808BF00F066F9B0EE480AE4
:103B3000BDEC028B10BD4FF07F40B0EB440F07D2BD
:103B4000B0EE480ABDEC028BBDE8104000F046B96B
:103B50000120FCF7C1FCBDEC028BBDE8104000F079
:103B600043B900000000C9BF22AAFDB90000C93F47
:103B700022AAFD390000000024FE1C3DC78AD83C63
:103B80001E67383D1B93993DAFAA2A3E10EE100ADE
:103B900010B510EE901A4FF0684202EB40032DED85
:103BA000028BB3F1654F3CBF02EB4102B2F1654FAE
:103BB0007CD200BFC0F3C753C1F3C7529A1A1B2A65
:103BC00009DD10F0004F14BF9FED6E0A9FED6E0AE5
:103BD000BDEC028B10BD12F11A0F1BDA11F0004F71
:103BE00009D010F0004F0CBF9FED680A9FED680AE6
:103BF000BDEC028B10BD80EE208A18EE100AFFF794
:103C00001BFF042808BF00F0F7F8B0EE480ABDEC2F
:103C1000028B10BD4200B2EB410F37D910F0004FBC
:103C200019BFDFED5C1A9FED5C1ADFED5C1A9FEDAA
:103C30005C1AB0EE602A0A46F1EE400A80F00041BC
:103C4000B0EE420A10460A1A5200B2F1807F34D216
:103C5000484010F0004FDFED532A9FED533A1DBF4F
:103C6000BEEE002A71EEE21A31EE431AB6EE002AD9
:103C700004BF71EEA21A31EE031AF0EE402A42EEB2
:103C8000602A40EE020A82EEA02A18E011F0004FEE
:103C900004BF9FED461AF0EE411AD4D010F0004F49
:103CA0001CBFDFED431A9FED431A00E026E004BF7E
:103CB000DFED411A9FED411AC5E780EE202A22EE82
:103CC000020ADFED3F0ADFED3F2ABDEC028B40EE3A
:103CD000202ADFED3D0A40EE220ADFED3C2A40EECD
:103CE000202ADFED3B0A40EE220A22EE000A00EE17
:103CF000201A31EE020A30EE210A10BD4FF07F4249
:103D0000B2EB400F28BFB2EB410F05D2BDEC028BE6
:103D1000BDE8104000F065B840EA01035B0008BF51
:103D200041F0FF410BD0B2EB400F08BFB2EB410FA7
:103D300008D120F0804000EE100A21F0804100EE12
:103D4000901A37E7B2EB400F12BF5FEA410240F032
:103D5000FF4001F000413FF42DAF4A0092EA4003DA
:103D60003FF528AF002AACBF9FED1A1A9FED1A1A33
:103D700020EE010A60EE810A10EE100A10EE901A91
:103D800018E70000DB0FC9BFDB0FC93FDB0F49405D
:103D9000DB0F49C00000C9BF22AAFDB90000C93F1E
:103DA00022AAFD390060ED3EC30ACE3700000000B4
:103DB000000049C022AA7DBA0000494022AA7D3AEB
:103DC0002DAD65BD8FB8D53D0FB511BE61C84C3E58
:103DD000A8AAAABE0000804F0000802F30EE000A83
:103DE000704730EE200A7047DFED020A80EEA00A2D
:103DF00070470000000000009FED020A20EE000A5C
:103E0000704700000000001070B500250024FCF78A
:103E1000EBFB8020FCF728FD5520FCF725FD552005
:103E2000FCF722FD0546FCF7D5FB9620FCF70AFCC3
:103E3000FCF7DAFB8020FCF717FD5520FCF714FD9A
:103E40005520FCF711FD0546FCF7C4FB9620FCF756
:103E5000F9FBFCF7C9FBB6217E20FCF715FDFCF74A
:103E6000B9FB5020FCF7E1FBFCF7BEFB8020FCF720
:103E7000FBFC5520FCF7F8FC5520FCF7F5FC05464B
:103E8000FCF7A8FB9620FCF7DDFBFCF7ADFB8020E0
:103E9000FCF7EAFC5520FCF7E7FC5520FCF7E4FCB6
:103EA0000546FCF797FB9620FCF7CCFB1E2D01D0B6
:103EB000FF2070BD002434E0FCF796FB04EB4402C5
:103EC0001A4B1A44517804EB4402985CFCF7DCFC72
:103ED000FCF780FB9620FCF7B5FBFCF785FB04EBB9
:103EE0004401124A515C41F08000FCF7BDFC5520B2
:103EF000FCF7BAFC5520FCF7B7FC0546FCF76AFB5B
:103F00009620FCF79FFB04EB4400084908444078E6
:103F1000A84204D004EB440008448078C9E7601C40
:103F2000C4B2062CC8DB0020C3E7000068000020F4
:103F300038B5002400200090FCF76CFB6946002097
:103F4000FCF785FCFCF75CFB9620FCF77BFBFCF7A1
:103F500061FB69460020FCF77AFCFCF751FB9620D8
:103F6000FCF770FBFCF756FBB6211420FCF78CFC29
:103F7000FCF746FB5020FCF758FBFCF74BFB69466F
:103F80000020FCF764FCFCF73BFB9620FCF75AFB97
:103F9000FCF740FB69460020FCF759FCFCF730FBBE
:103FA0009620FCF74FFB9DF800000F2801D0FF2062
:103FB00038BD00242FE0FCF72DFB04EB4402184B26
:103FC0001A44517804EB4402985CFCF75DFCFCF762
:103FD00017FB9620FCF736FBFCF71CFB04EB4401B7
:103FE0000F4A505C6946FCF732FCFCF709FB96204F
:103FF000FCF728FB04EB44000949084440789DF88D
:104000000010884205D004EB44000549084480783C
:10401000CEE7601CC4B2062CCDDB0020C8E7000050
:104020007A00002010B58AB0044600200590069062
:1040300001200790002000900190029003900490CE
:10404000012008900E20099069462046FCF7CAFD21
:104050000448FDF794F902210248FCF72FFD0AB04D
:1040600010BD0000D00400202DE9F04104460D46AB
:1040700016461F4694ED001A21EE011AD4ED011ADE
:1040800094ED012A01EE821AF7EE001AB0EE002A32
:1040900052EE011AF0EE610A94ED001AD4ED031A03
:1040A00021EE211AD4ED011A94ED022A01EE821AB2
:1040B000F0EE001A21EE211AB0EE410AFFF766FD7C
:1040C00085ED000AD4ED010A94ED031A60EE810A31
:1040D00094ED001AD4ED021A41EE610AB8EE001A0E
:1040E00060EE810AB0EE600AFFF7BAFC86ED000AC6
:1040F00094ED001A21EE011AD4ED031A94ED032A6F
:1041000001EE821AF7EE001AB0EE002A52EE011A02
:10411000F0EE610A94ED001AD4ED011A21EE211A95
:10412000D4ED021A94ED032A01EE821AF0EE001A81
:1041300021EE211AB0EE410AFFF728FD87ED000AB3
:10414000BDE8F081F0EE400AF6EE001A60EEA11A2A
:10415000B0EE611AB0EE600A10EE100A0749A1EB4A
:10416000600000EE100A21EE002AF7EE081A42EE77
:10417000401A61EE801AB0EE610A7047DF59375F6E
:10418000FDF7F0FAFFF732F8FEF7F2FCFEF79CFCC1
:10419000FEF794FDFEF7B6FDFEF7EAFDFEF770FCB4
:1041A0000448FFF73FFFFEF7B3FC00F013F800BF31
:1041B000FEE70000D00400200021842800D0C11CAC
:1041C0000846704710B5002800D1012000F05CFCC3
:1041D000002010BD10B500F07FFC002010BD30B5F0
:1041E00085B004460D466169B4F90800002910D075
:1041F000A16971B1FFF7E0FF6269A16901920291C3
:1042000000902B4622692168606800F099FD0490B7
:1042100010E0FFF7D1FF04A901910090208A2B46FE
:1042200082B22168606800F055FD012802D005B017
:10423000002030BD049805B030BD0000B0EE401A3B
:1042400080ED051AC0ED060A90ED070A80ED080A18
:1042500090ED050AD0ED061A30EE610A80ED070AEE
:1042600090ED070ADFED4A1AB4EEE10AF1EE10FA1A
:104270000CDD90ED050AD0ED061A9FED462A71EE91
:10428000821A30EE610A80ED070A14E090ED070A09
:10429000DFED411AB4EEE10AF1EE10FA0BD290ED27
:1042A000050AD0ED061A30EE610ADFED3A1A30EE5B
:1042B000210A80ED070A90ED000AD0ED071A20EEE2
:1042C000210A80ED090A90ED0A0AD0ED011A90ED5D
:1042D000072A01EE820A80ED0A0A90ED070AD0ED66
:1042E000081A30EE610AD0ED021A20EE210A80EDA4
:1042F0000B0A90ED0A0AD0ED031AF1EE611AB4EE42
:10430000E10AF1EE10FA04D890ED030AB1EE400A8A
:104310000DE090ED0A0AD0ED031AB4EEE10AF1EED9
:1043200010FA02DB90ED030A01E090ED0A0A80ED3D
:104330000A0A90ED090AD0ED0A1A30EE210AD0EDF2
:104340000B1A30EE210A80ED0C0A90ED0C0AD0ED2C
:10435000041AF1EE611AB4EEE10AF1EE10FA04D893
:1043600090ED040AB1EE400A0DE090ED0C0AD0ED9C
:10437000041AB4EEE10AF1EE10FA02DB90ED040A41
:1043800001E090ED0C0A80ED0C0A90ED0C0A7047EC
:104390000000804500000046000080C580ED000A56
:1043A000C0ED010A80ED021AC0ED031A80ED042A67
:1043B000704700002DE9F04104460F46194E75691B
:1043C0003068001D00F095FA48B93068012190F876
:1043D0002C0001FA00F0B16921EA0000B061B4F1EB
:1043E000FF3F07D137B13068BDE8F041011D0E48ED
:1043F00000F0C7BA2C4430684460AC4206D2306842
:10440000011DB068BDE8F04100F0A0BA3068011DA0
:10441000706800F09BFA306B844200D23463BDE8D0
:10442000F0810000980000204C08002070B5044680
:1044300000F0B4FA1C4D2869401C2861286810B1AE
:10444000E86938B10CE02C602869012808D100F037
:10445000E7F805E02868E16AC06A884200D82C6065
:10446000E86A401CE862E06A0121AA6981401143C0
:10447000A9610E4900EB800001EB8000211D00F0D6
:1044800080FA00F0ABFAE86900280CD02868E16AED
:10449000C06A884207D206494FF080500860BFF3D7
:1044A0004F8FBFF36F8F70BD980000207007002002
:1044B00004ED00E070B50D4CE068002815D00C4EFE
:1044C00000F06CFAF068C568281D00F012FA206947
:1044D000401E2061E068401EE06000F07FFA284640
:1044E00000F008F8E0680028EAD170BD98000020CC
:1044F0003808002010B5044694F8511000290BD05C
:10450000012911D0022914D0502080F31188BFF363
:104510004F8FBFF36F8FFEE7206B00F075FA2046D8
:10452000BDE8104000F070BA2046BDE8104000F031
:104530006BBA10BD4FF47051104810F0070F06D041
:10454000C01D20F007000D49411AC1F570510C4AF9
:104550001060002353600144083921F00701103A2C
:1045600011604B600B600B1A436001604068906003
:1045700050604FF00040D06070470000600800209D
:10458000E4000020074E4FF08054074DFFF792FFE4
:1045900030680128FAD92C60BFF34F8FBFF36F8FBB
:1045A000F4E700007007002004ED00E02DE9F0477B
:1045B0008146099E089D0A9C9A46521E206B00EB7C
:1045C000820020F007080027002023180A5C83F8E7
:1045D00034200A5C12B1401C1028F6D384F84370D2
:1045E000072D00D30625E5626564A764201D00F051
:1045F000AAF904F1180000F0A6F92461C5F107003A
:10460000A0616462E76484F85070524649464046AF
:1046100000F000F92060002E00D03460BDE8F08783
:1046200070B500240F4D04EB840005EB800000F012
:104630007FF9641C072CF6D30B4800F079F90B487E
:1046400000F076F90A4800F073F90A4800F070F9B2
:10465000094800F06DF9094803494160143181604F
:1046600070BD000070070020FC070020100800202B
:1046700024080020380800204C0800209800002062
:1046800010B4144900E011460A688242FBD34B681B
:1046900003EB010C844503D1406818444860084688
:1046A0000C68D0F804C00CEB0003A3420CD10A4BF9
:1046B0001B689A4206D05268624442600A681268D7
:1046C000026002E0036000E00260814200D0086006
:1046D00010BC7047E4000020D4000020074948685F
:1046E0000068002805D04868C068C0684068086352
:1046F00070474FF0FF3008637047000098000020BB
:104700000A484068B0F1FF3F07D0502080F311887D
:10471000BFF34F8FBFF36F8FFEE7502080F31188F8
:10472000BFF34F8FBFF36F8FFEE70000EC00002058
:104730002DE9F0410546002600F012FA334F3868A3
:1047400008B9FFF7F7FEF86805424ED19DB108356C
:1047500015F0070F0FD005F00700C0F10800054461
:1047600015F0070F07D0502080F31188BFF34F8F4B
:10477000BFF36F8FFEE7002D37D07868854234D8BD
:1047800023490846046801E0214604466068A842BF
:1047900002D220680028F7D13868844225D0086802
:1047A00000F10806206808606068411B10290FD9D5
:1047B000601910F0070F07D0502080F31188BFF365
:1047C0004F8FBFF36F8FFEE741606560FFF758FFC3
:1047D00061687868401A7860BA68904200D2B86020
:1047E000F868084360600020206000F041FB16F08C
:1047F000070F07D0502080F31188BFF34F8FBFF30E
:104800006F8FFEE73046BDE8F0810000D400002045
:10481000E4000020001F4FF080730360001F21F0B0
:1048200001010160001F0549016014380260001F8A
:104830006FF0020101602038704700000147000856
:104840002DE9F04188B080460C4615461E460E9F65
:10485000B8F1000F02D140F2FF1001E040F2FF205A
:10486000029000200490059008200690200A8DF800
:104870000000E0B28DF80100280A8DF80200E8B2CD
:104880008DF80300300A8DF80400F0B28DF80500B1
:10489000380A8DF80600F8B28DF8070001236A4641
:1048A00002A90348FCF71CF908B0BDE8F08100003C
:1048B000D004002010B500EE100A2DED028BB1EEF1
:1048C000C08A18EE100A20F00040C0F1FF40C00F6F
:1048D0000AD010EE100A20F00040C0F1FF40C00FD7
:1048E00004BF0120FBF7F8FD18EE100ABDEC028BA7
:1048F00010BD0169436882689A60836842685A60A3
:104900004A68824201D182684A60002202610868D6
:10491000401E086008687047034B0360034B0B6040
:1049200080231360704700007C020020D00200202A
:1049300000F1080141604FF0FF328260C160016107
:1049400000210160704700210161704710B4D1F867
:1049500000C0BCF1FF3F02D000F1080202E0026992
:1049600004E01A4653681C686445FAD953684B60E2
:1049700099608A60516008610168491C016010BC3F
:10498000704742684A6093688B6093685960916091
:1049900008610168491C016070470000502080F3E5
:1049A0001188BFF34F8FBFF36F8F0A494868401CCF
:1049B000486001280CD10848006810F0FF0F07D0AC
:1049C000502080F31188BFF34F8FBFF36F8FFEE746
:1049D00070470000EC00002004ED00E00949486841
:1049E000002806D0401E4860002801D180F31188BD
:1049F0007047502080F31188BFF34F8FBFF36F8F44
:104A0000FEE70000EC00002070B5002827D0A0F1E0
:104A10000804134D6068E968084207D1502080F30C
:104A20001188BFF34F8FBFF36F8FFEE722683AB153
:104A3000502080F31188BFF34F8FBFF36F8FFEE7D5
:104A40008843606000F08CF86068696808446860BA
:104A50002046FFF715FEBDE8704000F009BA70BDB2
:104A6000D40000204FF0E020002101618161054960
:104A70004FF47A720968B1FBF2F1491E41610721D6
:104A8000016170471C00002010B502460020002A7A
:104A900012D00F48806B38B1502080F31188BFF3DB
:104AA0004F8FBFF36F8FFEE700F05AF800211046DA
:104AB000FFF780FC00F0DCF9002807D105494FF032
:104AC00080500860BFF34F8FBFF36F8F10BD0000A1
:104AD0009800002004ED00E010B586B00024059495
:104AE000049403AA04A905A8FFF716FF05980499E2
:104AF000019102900023009415A11748039A00F039
:104B00001FF91649486308B1012000E00020012880
:104B10000AD0B0F1FF3F19D1502080F31188BFF3C4
:104B20004F8FBFF36F8FFEE7502080F31188BFF3E4
:104B30004F8FBFF36F8F4FF0FF3008630120C861C4
:104B40004C6106B0BDE8104000F042B806B010BDA0
:104B500049444C45000000008545000898000020AD
:104B60000248816B491C8163704700009800002057
:104B7000154A906B002802D0012050627047002037
:104B800050629069B0FA80F0C0F11F000F4900EB4D
:104B9000800051F8203073B101EB80004168496812
:104BA000416000F10803994201D1496841604068C1
:104BB000C06810607047502080F31188BFF34F8F9A
:104BC000BFF36F8FFEE70000980000207007002001
:104BD00000B583B038480168384A914207D1502067
:104BE00080F31188BFF34F8FBFF36F8FFEE700682C
:104BF0003349884207D1502080F31188BFF34F8F8B
:104C0000BFF36F8FFEE72F4908780290FF200870EE
:104C1000087801909DF804009DF8042000F0F00051
:104C2000904207D0502080F31188BFF34F8FBFF31D
:104C30006F8FFEE79DF80400234B00F050001870C2
:104C4000072098609DF8040010F0800F0BD0986842
:104C5000401E98609DF80400400001909DF80400FB
:104C600010F0800FF3D19868032807D0502080F30C
:104C70001188BFF34F8FBFF36F8FFEE74FF4407083
:104C80009860029808701148016841F47001016051
:104C9000016841F070410160FFF7E4FE00205860B8
:104CA000FBF7E6FA0A48016841F040410160FBF772
:104CB000CBFA03B0002000BD00ED00E071C20F414F
:104CC00070C20F4100E400E0EC00002020ED00E0A5
:104CD00034EF00E02DE9F04F85B081460F9F0E9E26
:104CE0008A4690469B464FEA8800FFF721FD05461D
:104CF00028000AD05420FFF71BFD04460CB12563A1
:104D000004E02846FFF780FE00E000249CB100206C
:104D100084F8510003905B46424651460197009645
:104D200002944846FFF742FC2046FFF77FFB05B0A0
:104D30000120BDE8F08F05B04FF0FF30BDE8F08FE7
:104D400070B586B00646DDF828C00C9C0B9800288C
:104D500016D0ECB1542504952063022084F851004C
:104D6000002005AD0390CDF800C0019502943046B7
:104D7000FFF71CFC2046FFF759FB059806B070BDF5
:104D8000502080F31188BFF34F8FBFF36F8FFEE782
:104D9000502080F31188BFF34F8FBFF36F8FFEE772
:104DA0002DE9F0470026304FB86B002808D0386A4C
:104DB000401C3862786A00B101263046BDE8F087B1
:104DC0007869451C7D619DB97868006838B15020CC
:104DD00080F31188BFF34F8FBFF36F8FFEE77868C2
:104DE000B9687960B860B86A401CB862FFF776FCB1
:104DF000386BDFF8788085420FD34FF0010978686F
:104E0000006838B17868C068C468606885420ED2AE
:104E1000386302E04FF0FF3038633868C06A00EB57
:104E2000800058F820000128C4D90126C2E7201DBF
:104E3000FFF75FFDA06A18B104F11800FFF759FDF4
:104E4000E16ABA6909FA01F01043B86101EB810027
:104E500008EB8000211DFFF794FDE06A3968C96AFC
:104E60008842CCD30126CAE79800002070070020B2
:104E70002DE9F0470024A0462D4DA86B002807D04F
:104E8000FFF78CFDA86B401EA863A86B40B149E0FA
:104E9000502080F31188BFF34F8FBFF36F8FFEE771
:104EA000286900283ED0234F3868012600B3A7F1B7
:104EB000B409F868C46804F11800FFF71AFD201D52
:104EC000FFF717FDE06AAA6906FA00F11143A9612C
:104ED00000EB800009EB8000211DFFF752FDE06A26
:104EE0002968C96A884200D36E6238680028E0D118
:104EF0000CB1FFF7F3FB2C6A44B1FFF751FF00B18F
:104F00006E62641E002CF8D100202862686A48B1E5
:104F10004FF0010808494FF080500860BFF34F8FF1
:104F2000BFF36F8FFFF75AFD4046BDE8F0870000E2
:104F3000980000202408002004ED00E04FF04070AD
:104F4000E1EE100A70470000D04F0008B7310008AA
:104F500000000000000000008000000000000000D1
:104F600000000000BC4F00088D090008020000008E
:104F7000000000000002000000000000000000002F
:104F8000C44F0008B529000802000000000000001E
:104F9000000200000000000000000000000000000F
:104FA00000000000010203040607080900000000D9
:104FB000010203040006101600061016474D363095
:104FC00032300000494D555F424D493038380000BD
:104FD00064656661756C745461736B00FC4F000806
:104FE00000000020F8000000C4010008F450000890
:104FF000F8000020C8830000E00100080000000065
:1050000000000000000000000000000000000000A0
:1050100000000000000000000024F4000000000078
:105020000000803F000000000000000000000000C1
:105030000000000000000000000000000000000070
:105040000082FFFFFFFFFFFFFF92FFFFFFFFFFFF59
:10505000FFFF00000000A2FFFFFF0000E7416B3AE6
:1050600058A08B3A7D04017C000240AB034100054F
:105070005308065804070F000810820911000A158A
:10508000800B16000C18010D01000000100000003C
:105090000000000000000000000000000000000010
:1050A0000000000000000000000000000000000000
:1050B00000000000000000000000000000000000F0
:1050C00000000000000000000000000000000000E0
:1050D00000000000000000000000000000000000D0
:1050E000000000000000000000000000AAAAAAAA18
:0450F00000000000BC
:040000050800018965
:00000001FF
